:10080000C2A3C2A2C2A1C2A07590FFE590540FFF7F
:100810007E0064027008D2A0C2A1D2A2C2A3EF647B
:10082000084E7008C2A0D2A1C2A2D2A3EF64044EA7
:100830007008C2A0D2A1D2A2C2A3EF64064E700873
:10084000D2A0C2A1C2A2D2A3EF64014E7008C2A07E
:10085000C2A1D2A2C2A3EF64034E7008D2A0C2A16B
:10086000C2A2C2A3EF64054E70A1D2A0D2A1D2A2AF
:04087000D2A38097F8
:030000000208747F
:0C087400787FE4F6D8FD758107020800CB
:00000001FF
